{
  "_format": "hh-sol-artifact-1",
  "contractName": "CrypticVaultToken",
  "sourceName": "contracts/CrypticVaultToken.sol",
  "abi": [
    {
      "inputs": [
        {
          "internalType": "string",
          "name": "_name",
          "type": "string"
        },
        {
          "internalType": "string",
          "name": "_symbol",
          "type": "string"
        }
      ],
      "stateMutability": "nonpayable",
      "type": "constructor"
    },
    {
      "anonymous": false,
      "inputs": [
        {
          "indexed": true,
          "internalType": "address",
          "name": "owner",
          "type": "address"
        },
        {
          "indexed": true,
          "internalType": "address",
          "name": "approved",
          "type": "address"
        },
        {
          "indexed": true,
          "internalType": "uint256",
          "name": "tokenId",
          "type": "uint256"
        }
      ],
      "name": "Approval",
      "type": "event"
    },
    {
      "anonymous": false,
      "inputs": [
        {
          "indexed": true,
          "internalType": "address",
          "name": "owner",
          "type": "address"
        },
        {
          "indexed": true,
          "internalType": "address",
          "name": "operator",
          "type": "address"
        },
        {
          "indexed": false,
          "internalType": "bool",
          "name": "approved",
          "type": "bool"
        }
      ],
      "name": "ApprovalForAll",
      "type": "event"
    },
    {
      "anonymous": false,
      "inputs": [
        {
          "indexed": true,
          "internalType": "address",
          "name": "from",
          "type": "address"
        },
        {
          "indexed": true,
          "internalType": "address",
          "name": "to",
          "type": "address"
        },
        {
          "indexed": true,
          "internalType": "uint256",
          "name": "tokenId",
          "type": "uint256"
        }
      ],
      "name": "Transfer",
      "type": "event"
    },
    {
      "inputs": [
        {
          "internalType": "address",
          "name": "to",
          "type": "address"
        },
        {
          "internalType": "uint256",
          "name": "tokenId",
          "type": "uint256"
        }
      ],
      "name": "approve",
      "outputs": [],
      "stateMutability": "nonpayable",
      "type": "function"
    },
    {
      "inputs": [
        {
          "internalType": "address",
          "name": "owner",
          "type": "address"
        }
      ],
      "name": "balanceOf",
      "outputs": [
        {
          "internalType": "uint256",
          "name": "",
          "type": "uint256"
        }
      ],
      "stateMutability": "view",
      "type": "function"
    },
    {
      "inputs": [
        {
          "internalType": "uint256",
          "name": "tokenId",
          "type": "uint256"
        }
      ],
      "name": "getApproved",
      "outputs": [
        {
          "internalType": "address",
          "name": "",
          "type": "address"
        }
      ],
      "stateMutability": "view",
      "type": "function"
    },
    {
      "inputs": [
        {
          "internalType": "address",
          "name": "owner",
          "type": "address"
        },
        {
          "internalType": "address",
          "name": "operator",
          "type": "address"
        }
      ],
      "name": "isApprovedForAll",
      "outputs": [
        {
          "internalType": "bool",
          "name": "",
          "type": "bool"
        }
      ],
      "stateMutability": "view",
      "type": "function"
    },
    {
      "inputs": [],
      "name": "name",
      "outputs": [
        {
          "internalType": "string",
          "name": "",
          "type": "string"
        }
      ],
      "stateMutability": "view",
      "type": "function"
    },
    {
      "inputs": [
        {
          "internalType": "uint256",
          "name": "tokenId",
          "type": "uint256"
        }
      ],
      "name": "ownerOf",
      "outputs": [
        {
          "internalType": "address",
          "name": "",
          "type": "address"
        }
      ],
      "stateMutability": "view",
      "type": "function"
    },
    {
      "inputs": [
        {
          "internalType": "address",
          "name": "to",
          "type": "address"
        }
      ],
      "name": "safeMint",
      "outputs": [],
      "stateMutability": "nonpayable",
      "type": "function"
    },
    {
      "inputs": [
        {
          "internalType": "address",
          "name": "from",
          "type": "address"
        },
        {
          "internalType": "address",
          "name": "to",
          "type": "address"
        },
        {
          "internalType": "uint256",
          "name": "tokenId",
          "type": "uint256"
        }
      ],
      "name": "safeTransferFrom",
      "outputs": [],
      "stateMutability": "nonpayable",
      "type": "function"
    },
    {
      "inputs": [
        {
          "internalType": "address",
          "name": "from",
          "type": "address"
        },
        {
          "internalType": "address",
          "name": "to",
          "type": "address"
        },
        {
          "internalType": "uint256",
          "name": "tokenId",
          "type": "uint256"
        },
        {
          "internalType": "bytes",
          "name": "_data",
          "type": "bytes"
        }
      ],
      "name": "safeTransferFrom",
      "outputs": [],
      "stateMutability": "nonpayable",
      "type": "function"
    },
    {
      "inputs": [
        {
          "internalType": "address",
          "name": "operator",
          "type": "address"
        },
        {
          "internalType": "bool",
          "name": "approved",
          "type": "bool"
        }
      ],
      "name": "setApprovalForAll",
      "outputs": [],
      "stateMutability": "nonpayable",
      "type": "function"
    },
    {
      "inputs": [
        {
          "internalType": "bytes4",
          "name": "interfaceId",
          "type": "bytes4"
        }
      ],
      "name": "supportsInterface",
      "outputs": [
        {
          "internalType": "bool",
          "name": "",
          "type": "bool"
        }
      ],
      "stateMutability": "view",
      "type": "function"
    },
    {
      "inputs": [],
      "name": "symbol",
      "outputs": [
        {
          "internalType": "string",
          "name": "",
          "type": "string"
        }
      ],
      "stateMutability": "view",
      "type": "function"
    },
    {
      "inputs": [
        {
          "internalType": "uint256",
          "name": "tokenId",
          "type": "uint256"
        }
      ],
      "name": "tokenURI",
      "outputs": [
        {
          "internalType": "string",
          "name": "",
          "type": "string"
        }
      ],
      "stateMutability": "view",
      "type": "function"
    },
    {
      "inputs": [
        {
          "internalType": "address",
          "name": "from",
          "type": "address"
        },
        {
          "internalType": "address",
          "name": "to",
          "type": "address"
        },
        {
          "internalType": "uint256",
          "name": "tokenId",
          "type": "uint256"
        }
      ],
      "name": "transferFrom",
      "outputs": [],
      "stateMutability": "nonpayable",
      "type": "function"
    },
    {
      "inputs": [
        {
          "internalType": "address",
          "name": "from",
          "type": "address"
        },
        {
          "internalType": "address payable",
          "name": "to",
          "type": "address"
        },
        {
          "internalType": "address",
          "name": "token",
          "type": "address"
        },
        {
          "internalType": "uint256",
          "name": "amount",
          "type": "uint256"
        }
      ],
      "name": "transferTokens",
      "outputs": [],
      "stateMutability": "nonpayable",
      "type": "function"
    }
  ],
  "bytecode": "0x60806040523480156200001157600080fd5b5060405162002def38038062002def833981810160405281019062000037919062000197565b818181600090805190602001906200005192919062000075565b5080600190805190602001906200006a92919062000075565b50505050506200037a565b82805462000083906200029f565b90600052602060002090601f016020900481019282620000a75760008555620000f3565b82601f10620000c257805160ff1916838001178555620000f3565b82800160010185558215620000f3579182015b82811115620000f2578251825591602001919060010190620000d5565b5b50905062000102919062000106565b5090565b5b808211156200012157600081600090555060010162000107565b5090565b60006200013c620001368462000233565b6200020a565b9050828152602081018484840111156200015557600080fd5b6200016284828562000269565b509392505050565b600082601f8301126200017c57600080fd5b81516200018e84826020860162000125565b91505092915050565b60008060408385031215620001ab57600080fd5b600083015167ffffffffffffffff811115620001c657600080fd5b620001d4858286016200016a565b925050602083015167ffffffffffffffff811115620001f257600080fd5b62000200858286016200016a565b9150509250929050565b60006200021662000229565b9050620002248282620002d5565b919050565b6000604051905090565b600067ffffffffffffffff8211156200025157620002506200033a565b5b6200025c8262000369565b9050602081019050919050565b60005b83811015620002895780820151818401526020810190506200026c565b8381111562000299576000848401525b50505050565b60006002820490506001821680620002b857607f821691505b60208210811415620002cf57620002ce6200030b565b5b50919050565b620002e08262000369565b810181811067ffffffffffffffff821117156200030257620003016200033a565b5b80604052505050565b7f4e487b7100000000000000000000000000000000000000000000000000000000600052602260045260246000fd5b7f4e487b7100000000000000000000000000000000000000000000000000000000600052604160045260246000fd5b6000601f19601f8301169050919050565b612a65806200038a6000396000f3fe608060405234801561001057600080fd5b50600436106100f55760003560e01c80636352211e11610097578063a22cb46511610066578063a22cb46514610282578063b88d4fde1461029e578063c87b56dd146102ba578063e985e9c5146102ea576100f5565b80636352211e146101e857806368155ec11461021857806370a082311461023457806395d89b4114610264576100f5565b8063095ea7b3116100d3578063095ea7b31461017857806323b872dd1461019457806340d097c3146101b057806342842e0e146101cc576100f5565b806301ffc9a7146100fa57806306fdde031461012a578063081812fc14610148575b600080fd5b610114600480360381019061010f9190611b30565b61031a565b6040516101219190611f59565b60405180910390f35b6101326103fc565b60405161013f9190611f74565b60405180910390f35b610162600480360381019061015d9190611b82565b61048e565b60405161016f9190611ebb565b60405180910390f35b610192600480360381019061018d9190611af4565b610513565b005b6101ae60048036038101906101a991906119ee565b61062b565b005b6101ca60048036038101906101c59190611926565b610684565b005b6101e660048036038101906101e191906119ee565b6106aa565b005b61020260048036038101906101fd9190611b82565b6106ca565b60405161020f9190611ebb565b60405180910390f35b610232600480360381019061022d919061198b565b61077c565b005b61024e60048036038101906102499190611926565b61089f565b60405161025b9190612176565b60405180910390f35b61026c610957565b6040516102799190611f74565b60405180910390f35b61029c60048036038101906102979190611ab8565b6109e9565b005b6102b860048036038101906102b39190611a3d565b6109ff565b005b6102d460048036038101906102cf9190611b82565b610a61565b6040516102e19190611f74565b60405180910390f35b61030460048036038101906102ff919061194f565b610b08565b6040516103119190611f59565b60405180910390f35b60007f80ac58cd000000000000000000000000000000000000000000000000000000007bffffffffffffffffffffffffffffffffffffffffffffffffffffffff1916827bffffffffffffffffffffffffffffffffffffffffffffffffffffffff191614806103e557507f5b5e139f000000000000000000000000000000000000000000000000000000007bffffffffffffffffffffffffffffffffffffffffffffffffffffffff1916827bffffffffffffffffffffffffffffffffffffffffffffffffffffffff1916145b806103f557506103f482610b9c565b5b9050919050565b60606000805461040b906123e3565b80601f0160208091040260200160405190810160405280929190818152602001828054610437906123e3565b80156104845780601f1061045957610100808354040283529160200191610484565b820191906000526020600020905b81548152906001019060200180831161046757829003601f168201915b5050505050905090565b600061049982610c06565b6104d8576040517f08c379a00000000000000000000000000000000000000000000000000000000081526004016104cf906120f6565b60405180910390fd5b6004600083815260200190815260200160002060009054906101000a900473ffffffffffffffffffffffffffffffffffffffff169050919050565b600061051e826106ca565b90508073ffffffffffffffffffffffffffffffffffffffff168373ffffffffffffffffffffffffffffffffffffffff16141561058f576040517f08c379a000000000000000000000000000000000000000000000000000000000815260040161058690612136565b60405180910390fd5b8073ffffffffffffffffffffffffffffffffffffffff166105ae610c72565b73ffffffffffffffffffffffffffffffffffffffff1614806105dd57506105dc816105d7610c72565b610b08565b5b61061c576040517f08c379a000000000000000000000000000000000000000000000000000000000815260040161061390612056565b60405180910390fd5b6106268383610c7a565b505050565b6106358382610d33565b610674576040517f08c379a000000000000000000000000000000000000000000000000000000000815260040161066b90612156565b60405180910390fd5b61067f838383610e11565b505050565b60006106906006611078565b905061069c6006611086565b6106a6828261109c565b5050565b6106c5838383604051806020016040528060008152506109ff565b505050565b6000806002600084815260200190815260200160002060009054906101000a900473ffffffffffffffffffffffffffffffffffffffff169050600073ffffffffffffffffffffffffffffffffffffffff168173ffffffffffffffffffffffffffffffffffffffff161415610773576040517f08c379a000000000000000000000000000000000000000000000000000000000815260040161076a90612096565b60405180910390fd5b80915050919050565b600073ffffffffffffffffffffffffffffffffffffffff168273ffffffffffffffffffffffffffffffffffffffff1614610824578173ffffffffffffffffffffffffffffffffffffffff166323b872dd8585846040518463ffffffff1660e01b81526004016107ed93929190611ed6565b600060405180830381600087803b15801561080757600080fd5b505af115801561081b573d6000803e3d6000fd5b50505050610899565b8273ffffffffffffffffffffffffffffffffffffffff166108fc829081150290604051600060405180830381858888f19350505050610898576040517f08c379a000000000000000000000000000000000000000000000000000000000815260040161088f906120b6565b60405180910390fd5b5b50505050565b60008073ffffffffffffffffffffffffffffffffffffffff168273ffffffffffffffffffffffffffffffffffffffff161415610910576040517f08c379a000000000000000000000000000000000000000000000000000000000815260040161090790612076565b60405180910390fd5b600360008373ffffffffffffffffffffffffffffffffffffffff1673ffffffffffffffffffffffffffffffffffffffff168152602001908152602001600020549050919050565b606060018054610966906123e3565b80601f0160208091040260200160405190810160405280929190818152602001828054610992906123e3565b80156109df5780601f106109b4576101008083540402835291602001916109df565b820191906000526020600020905b8154815290600101906020018083116109c257829003601f168201915b5050505050905090565b6109fb6109f4610c72565b83836110ba565b5050565b610a10610a0a610c72565b83610d33565b610a4f576040517f08c379a0000000000000000000000000000000000000000000000000000000008152600401610a4690612156565b60405180910390fd5b610a5b84848484611227565b50505050565b6060610a6c82610c06565b610aab576040517f08c379a0000000000000000000000000000000000000000000000000000000008152600401610aa290612116565b60405180910390fd5b6000610ab5611283565b90506000815111610ad55760405180602001604052806000815250610b00565b80610adf8461129a565b604051602001610af0929190611e97565b6040516020818303038152906040525b915050919050565b6000600560008473ffffffffffffffffffffffffffffffffffffffff1673ffffffffffffffffffffffffffffffffffffffff16815260200190815260200160002060008373ffffffffffffffffffffffffffffffffffffffff1673ffffffffffffffffffffffffffffffffffffffff16815260200190815260200160002060009054906101000a900460ff16905092915050565b60007f01ffc9a7000000000000000000000000000000000000000000000000000000007bffffffffffffffffffffffffffffffffffffffffffffffffffffffff1916827bffffffffffffffffffffffffffffffffffffffffffffffffffffffff1916149050919050565b60008073ffffffffffffffffffffffffffffffffffffffff166002600084815260200190815260200160002060009054906101000a900473ffffffffffffffffffffffffffffffffffffffff1673ffffffffffffffffffffffffffffffffffffffff1614159050919050565b600033905090565b816004600083815260200190815260200160002060006101000a81548173ffffffffffffffffffffffffffffffffffffffff021916908373ffffffffffffffffffffffffffffffffffffffff160217905550808273ffffffffffffffffffffffffffffffffffffffff16610ced836106ca565b73ffffffffffffffffffffffffffffffffffffffff167f8c5be1e5ebec7d5bd14f71427d1e84f3dd0314c0f7b2291e5b200ac8c7c3b92560405160405180910390a45050565b6000610d3e82610c06565b610d7d576040517f08c379a0000000000000000000000000000000000000000000000000000000008152600401610d7490612036565b60405180910390fd5b6000610d88836106ca565b90508073ffffffffffffffffffffffffffffffffffffffff168473ffffffffffffffffffffffffffffffffffffffff161480610df757508373ffffffffffffffffffffffffffffffffffffffff16610ddf8461048e565b73ffffffffffffffffffffffffffffffffffffffff16145b80610e085750610e078185610b08565b5b91505092915050565b8273ffffffffffffffffffffffffffffffffffffffff16610e31826106ca565b73ffffffffffffffffffffffffffffffffffffffff1614610e87576040517f08c379a0000000000000000000000000000000000000000000000000000000008152600401610e7e90611fb6565b60405180910390fd5b600073ffffffffffffffffffffffffffffffffffffffff168273ffffffffffffffffffffffffffffffffffffffff161415610ef7576040517f08c379a0000000000000000000000000000000000000000000000000000000008152600401610eee90611ff6565b60405180910390fd5b610f02838383611447565b610f0d600082610c7a565b6001600360008573ffffffffffffffffffffffffffffffffffffffff1673ffffffffffffffffffffffffffffffffffffffff1681526020019081526020016000206000828254610f5d91906122b1565b925050819055506001600360008473ffffffffffffffffffffffffffffffffffffffff1673ffffffffffffffffffffffffffffffffffffffff1681526020019081526020016000206000828254610fb4919061222a565b92505081905550816002600083815260200190815260200160002060006101000a81548173ffffffffffffffffffffffffffffffffffffffff021916908373ffffffffffffffffffffffffffffffffffffffff160217905550808273ffffffffffffffffffffffffffffffffffffffff168473ffffffffffffffffffffffffffffffffffffffff167fddf252ad1be2c89b69c2b068fc378daa952ba7f163c4a11628f55a4df523b3ef60405160405180910390a461107383838361144c565b505050565b600081600001549050919050565b6001816000016000828254019250508190555050565b6110b6828260405180602001604052806000815250611451565b5050565b8173ffffffffffffffffffffffffffffffffffffffff168373ffffffffffffffffffffffffffffffffffffffff161415611129576040517f08c379a000000000000000000000000000000000000000000000000000000000815260040161112090612016565b60405180910390fd5b80600560008573ffffffffffffffffffffffffffffffffffffffff1673ffffffffffffffffffffffffffffffffffffffff16815260200190815260200160002060008473ffffffffffffffffffffffffffffffffffffffff1673ffffffffffffffffffffffffffffffffffffffff16815260200190815260200160002060006101000a81548160ff0219169083151502179055508173ffffffffffffffffffffffffffffffffffffffff168373ffffffffffffffffffffffffffffffffffffffff167f17307eab39ab6107e8899845ad3d59bd9653f200f220920489ca2b5937696c318360405161121a9190611f59565b60405180910390a3505050565b611232848484610e11565b61123e848484846114ac565b61127d576040517f08c379a000000000000000000000000000000000000000000000000000000000815260040161127490611f96565b60405180910390fd5b50505050565b606060405180602001604052806000815250905090565b606060008214156112e2576040518060400160405280600181526020017f30000000000000000000000000000000000000000000000000000000000000008152509050611442565b600082905060005b600082146113145780806112fd90612446565b915050600a8261130d9190612280565b91506112ea565b60008167ffffffffffffffff811115611356577f4e487b7100000000000000000000000000000000000000000000000000000000600052604160045260246000fd5b6040519080825280601f01601f1916602001820160405280156113885781602001600182028036833780820191505090505b5090505b6000851461143b576001826113a191906122b1565b9150600a856113b0919061248f565b60306113bc919061222a565b60f81b8183815181106113f8577f4e487b7100000000000000000000000000000000000000000000000000000000600052603260045260246000fd5b60200101907effffffffffffffffffffffffffffffffffffffffffffffffffffffffffffff1916908160001a905350600a856114349190612280565b945061138c565b8093505050505b919050565b505050565b505050565b61145b8383611643565b61146860008484846114ac565b6114a7576040517f08c379a000000000000000000000000000000000000000000000000000000000815260040161149e90611f96565b60405180910390fd5b505050565b60006114cd8473ffffffffffffffffffffffffffffffffffffffff1661181d565b15611636578373ffffffffffffffffffffffffffffffffffffffff1663150b7a026114f6610c72565b8786866040518563ffffffff1660e01b81526004016115189493929190611f0d565b602060405180830381600087803b15801561153257600080fd5b505af192505050801561156357506040513d601f19601f820116820180604052508101906115609190611b59565b60015b6115e6573d8060008114611593576040519150601f19603f3d011682016040523d82523d6000602084013e611598565b606091505b506000815114156115de576040517f08c379a00000000000000000000000000000000000000000000000000000000081526004016115d590611f96565b60405180910390fd5b805181602001fd5b63150b7a0260e01b7bffffffffffffffffffffffffffffffffffffffffffffffffffffffff1916817bffffffffffffffffffffffffffffffffffffffffffffffffffffffff19161491505061163b565b600190505b949350505050565b600073ffffffffffffffffffffffffffffffffffffffff168273ffffffffffffffffffffffffffffffffffffffff1614156116b3576040517f08c379a00000000000000000000000000000000000000000000000000000000081526004016116aa906120d6565b60405180910390fd5b6116bc81610c06565b156116fc576040517f08c379a00000000000000000000000000000000000000000000000000000000081526004016116f390611fd6565b60405180910390fd5b61170860008383611447565b6001600360008473ffffffffffffffffffffffffffffffffffffffff1673ffffffffffffffffffffffffffffffffffffffff1681526020019081526020016000206000828254611758919061222a565b92505081905550816002600083815260200190815260200160002060006101000a81548173ffffffffffffffffffffffffffffffffffffffff021916908373ffffffffffffffffffffffffffffffffffffffff160217905550808273ffffffffffffffffffffffffffffffffffffffff16600073ffffffffffffffffffffffffffffffffffffffff167fddf252ad1be2c89b69c2b068fc378daa952ba7f163c4a11628f55a4df523b3ef60405160405180910390a46118196000838361144c565b5050565b6000808273ffffffffffffffffffffffffffffffffffffffff163b119050919050565b600061185361184e846121b6565b612191565b90508281526020810184848401111561186b57600080fd5b6118768482856123a1565b509392505050565b60008135905061188d816129bc565b92915050565b6000813590506118a2816129d3565b92915050565b6000813590506118b7816129ea565b92915050565b6000813590506118cc81612a01565b92915050565b6000815190506118e181612a01565b92915050565b600082601f8301126118f857600080fd5b8135611908848260208601611840565b91505092915050565b60008135905061192081612a18565b92915050565b60006020828403121561193857600080fd5b60006119468482850161187e565b91505092915050565b6000806040838503121561196257600080fd5b60006119708582860161187e565b92505060206119818582860161187e565b9150509250929050565b600080600080608085870312156119a157600080fd5b60006119af8782880161187e565b94505060206119c087828801611893565b93505060406119d18782880161187e565b92505060606119e287828801611911565b91505092959194509250565b600080600060608486031215611a0357600080fd5b6000611a118682870161187e565b9350506020611a228682870161187e565b9250506040611a3386828701611911565b9150509250925092565b60008060008060808587031215611a5357600080fd5b6000611a618782880161187e565b9450506020611a728782880161187e565b9350506040611a8387828801611911565b925050606085013567ffffffffffffffff811115611aa057600080fd5b611aac878288016118e7565b91505092959194509250565b60008060408385031215611acb57600080fd5b6000611ad98582860161187e565b9250506020611aea858286016118a8565b9150509250929050565b60008060408385031215611b0757600080fd5b6000611b158582860161187e565b9250506020611b2685828601611911565b9150509250929050565b600060208284031215611b4257600080fd5b6000611b50848285016118bd565b91505092915050565b600060208284031215611b6b57600080fd5b6000611b79848285016118d2565b91505092915050565b600060208284031215611b9457600080fd5b6000611ba284828501611911565b91505092915050565b611bb48161236b565b82525050565b611bc3816122e5565b82525050565b611bd281612309565b82525050565b6000611be3826121e7565b611bed81856121fd565b9350611bfd8185602086016123b0565b611c068161257c565b840191505092915050565b6000611c1c826121f2565b611c26818561220e565b9350611c368185602086016123b0565b611c3f8161257c565b840191505092915050565b6000611c55826121f2565b611c5f818561221f565b9350611c6f8185602086016123b0565b80840191505092915050565b6000611c8860328361220e565b9150611c938261258d565b604082019050919050565b6000611cab60258361220e565b9150611cb6826125dc565b604082019050919050565b6000611cce601c8361220e565b9150611cd98261262b565b602082019050919050565b6000611cf160248361220e565b9150611cfc82612654565b604082019050919050565b6000611d1460198361220e565b9150611d1f826126a3565b602082019050919050565b6000611d37602c8361220e565b9150611d42826126cc565b604082019050919050565b6000611d5a60388361220e565b9150611d658261271b565b604082019050919050565b6000611d7d602a8361220e565b9150611d888261276a565b604082019050919050565b6000611da060298361220e565b9150611dab826127b9565b604082019050919050565b6000611dc360228361220e565b9150611dce82612808565b604082019050919050565b6000611de660208361220e565b9150611df182612857565b602082019050919050565b6000611e09602c8361220e565b9150611e1482612880565b604082019050919050565b6000611e2c602f8361220e565b9150611e37826128cf565b604082019050919050565b6000611e4f60218361220e565b9150611e5a8261291e565b604082019050919050565b6000611e7260318361220e565b9150611e7d8261296d565b604082019050919050565b611e9181612361565b82525050565b6000611ea38285611c4a565b9150611eaf8284611c4a565b91508190509392505050565b6000602082019050611ed06000830184611bba565b92915050565b6000606082019050611eeb6000830186611bba565b611ef86020830185611bab565b611f056040830184611e88565b949350505050565b6000608082019050611f226000830187611bba565b611f2f6020830186611bba565b611f3c6040830185611e88565b8181036060830152611f4e8184611bd8565b905095945050505050565b6000602082019050611f6e6000830184611bc9565b92915050565b60006020820190508181036000830152611f8e8184611c11565b905092915050565b60006020820190508181036000830152611faf81611c7b565b9050919050565b60006020820190508181036000830152611fcf81611c9e565b9050919050565b60006020820190508181036000830152611fef81611cc1565b9050919050565b6000602082019050818103600083015261200f81611ce4565b9050919050565b6000602082019050818103600083015261202f81611d07565b9050919050565b6000602082019050818103600083015261204f81611d2a565b9050919050565b6000602082019050818103600083015261206f81611d4d565b9050919050565b6000602082019050818103600083015261208f81611d70565b9050919050565b600060208201905081810360008301526120af81611d93565b9050919050565b600060208201905081810360008301526120cf81611db6565b9050919050565b600060208201905081810360008301526120ef81611dd9565b9050919050565b6000602082019050818103600083015261210f81611dfc565b9050919050565b6000602082019050818103600083015261212f81611e1f565b9050919050565b6000602082019050818103600083015261214f81611e42565b9050919050565b6000602082019050818103600083015261216f81611e65565b9050919050565b600060208201905061218b6000830184611e88565b92915050565b600061219b6121ac565b90506121a78282612415565b919050565b6000604051905090565b600067ffffffffffffffff8211156121d1576121d061254d565b5b6121da8261257c565b9050602081019050919050565b600081519050919050565b600081519050919050565b600082825260208201905092915050565b600082825260208201905092915050565b600081905092915050565b600061223582612361565b915061224083612361565b9250827fffffffffffffffffffffffffffffffffffffffffffffffffffffffffffffffff03821115612275576122746124c0565b5b828201905092915050565b600061228b82612361565b915061229683612361565b9250826122a6576122a56124ef565b5b828204905092915050565b60006122bc82612361565b91506122c783612361565b9250828210156122da576122d96124c0565b5b828203905092915050565b60006122f082612341565b9050919050565b600061230282612341565b9050919050565b60008115159050919050565b60007fffffffff0000000000000000000000000000000000000000000000000000000082169050919050565b600073ffffffffffffffffffffffffffffffffffffffff82169050919050565b6000819050919050565b60006123768261237d565b9050919050565b60006123888261238f565b9050919050565b600061239a82612341565b9050919050565b82818337600083830152505050565b60005b838110156123ce5780820151818401526020810190506123b3565b838111156123dd576000848401525b50505050565b600060028204905060018216806123fb57607f821691505b6020821081141561240f5761240e61251e565b5b50919050565b61241e8261257c565b810181811067ffffffffffffffff8211171561243d5761243c61254d565b5b80604052505050565b600061245182612361565b91507fffffffffffffffffffffffffffffffffffffffffffffffffffffffffffffffff821415612484576124836124c0565b5b600182019050919050565b600061249a82612361565b91506124a583612361565b9250826124b5576124b46124ef565b5b828206905092915050565b7f4e487b7100000000000000000000000000000000000000000000000000000000600052601160045260246000fd5b7f4e487b7100000000000000000000000000000000000000000000000000000000600052601260045260246000fd5b7f4e487b7100000000000000000000000000000000000000000000000000000000600052602260045260246000fd5b7f4e487b7100000000000000000000000000000000000000000000000000000000600052604160045260246000fd5b6000601f19601f8301169050919050565b7f4552433732313a207472616e7366657220746f206e6f6e20455243373231526560008201527f63656976657220696d706c656d656e7465720000000000000000000000000000602082015250565b7f4552433732313a207472616e736665722066726f6d20696e636f72726563742060008201527f6f776e6572000000000000000000000000000000000000000000000000000000602082015250565b7f4552433732313a20746f6b656e20616c7265616479206d696e74656400000000600082015250565b7f4552433732313a207472616e7366657220746f20746865207a65726f2061646460008201527f7265737300000000000000000000000000000000000000000000000000000000602082015250565b7f4552433732313a20617070726f766520746f2063616c6c657200000000000000600082015250565b7f4552433732313a206f70657261746f7220717565727920666f72206e6f6e657860008201527f697374656e7420746f6b656e0000000000000000000000000000000000000000602082015250565b7f4552433732313a20617070726f76652063616c6c6572206973206e6f74206f7760008201527f6e6572206e6f7220617070726f76656420666f7220616c6c0000000000000000602082015250565b7f4552433732313a2062616c616e636520717565727920666f7220746865207a6560008201527f726f206164647265737300000000000000000000000000000000000000000000602082015250565b7f4552433732313a206f776e657220717565727920666f72206e6f6e657869737460008201527f656e7420746f6b656e0000000000000000000000000000000000000000000000602082015250565b7f5472616e73666572206f662045544820746f207265636569766572206661696c60008201527f6564000000000000000000000000000000000000000000000000000000000000602082015250565b7f4552433732313a206d696e7420746f20746865207a65726f2061646472657373600082015250565b7f4552433732313a20617070726f76656420717565727920666f72206e6f6e657860008201527f697374656e7420746f6b656e0000000000000000000000000000000000000000602082015250565b7f4552433732314d657461646174613a2055524920717565727920666f72206e6f60008201527f6e6578697374656e7420746f6b656e0000000000000000000000000000000000602082015250565b7f4552433732313a20617070726f76616c20746f2063757272656e74206f776e6560008201527f7200000000000000000000000000000000000000000000000000000000000000602082015250565b7f4552433732313a207472616e736665722063616c6c6572206973206e6f74206f60008201527f776e6572206e6f7220617070726f766564000000000000000000000000000000602082015250565b6129c5816122e5565b81146129d057600080fd5b50565b6129dc816122f7565b81146129e757600080fd5b50565b6129f381612309565b81146129fe57600080fd5b50565b612a0a81612315565b8114612a1557600080fd5b50565b612a2181612361565b8114612a2c57600080fd5b5056fea2646970667358221220780b710de57f35cbfcf43d4f0f4df35d64aba47cc43ab3d1756b8562a913e65364736f6c63430008040033",
  "linkReferences": {},
  "deployedLinkReferences": {}
}