{
  "_format": "hh-sol-artifact-1",
  "contractName": "MinerAPI",
  "sourceName": "contracts/filecoinMockAPIs/MinerAPI.sol",
  "abi": [
    {
      "inputs": [
        {
          "internalType": "string",
          "name": "_owner",
          "type": "string"
        }
      ],
      "stateMutability": "nonpayable",
      "type": "constructor"
    },
    {
      "inputs": [
        {
          "components": [
            {
              "internalType": "string",
              "name": "new_beneficiary",
              "type": "string"
            },
            {
              "internalType": "int256",
              "name": "new_quota",
              "type": "int256"
            },
            {
              "internalType": "uint64",
              "name": "new_expiration",
              "type": "uint64"
            }
          ],
          "internalType": "struct MinerTypes.ChangeBeneficiaryParams",
          "name": "params",
          "type": "tuple"
        }
      ],
      "name": "change_beneficiary",
      "outputs": [],
      "stateMutability": "nonpayable",
      "type": "function"
    },
    {
      "inputs": [
        {
          "internalType": "string",
          "name": "addr",
          "type": "string"
        }
      ],
      "name": "change_owner_address",
      "outputs": [],
      "stateMutability": "nonpayable",
      "type": "function"
    },
    {
      "inputs": [],
      "name": "get_available_balance",
      "outputs": [
        {
          "components": [
            {
              "internalType": "int256",
              "name": "available_balance",
              "type": "int256"
            }
          ],
          "internalType": "struct MinerTypes.GetAvailableBalanceReturn",
          "name": "",
          "type": "tuple"
        }
      ],
      "stateMutability": "pure",
      "type": "function"
    },
    {
      "inputs": [],
      "name": "get_beneficiary",
      "outputs": [
        {
          "components": [
            {
              "components": [
                {
                  "internalType": "string",
                  "name": "beneficiary",
                  "type": "string"
                },
                {
                  "components": [
                    {
                      "internalType": "int256",
                      "name": "quota",
                      "type": "int256"
                    },
                    {
                      "internalType": "int256",
                      "name": "used_quota",
                      "type": "int256"
                    },
                    {
                      "internalType": "uint64",
                      "name": "expiration",
                      "type": "uint64"
                    }
                  ],
                  "internalType": "struct CommonTypes.BeneficiaryTerm",
                  "name": "term",
                  "type": "tuple"
                }
              ],
              "internalType": "struct CommonTypes.ActiveBeneficiary",
              "name": "active",
              "type": "tuple"
            },
            {
              "components": [
                {
                  "internalType": "bytes",
                  "name": "new_beneficiary",
                  "type": "bytes"
                },
                {
                  "internalType": "int256",
                  "name": "new_quota",
                  "type": "int256"
                },
                {
                  "internalType": "uint64",
                  "name": "new_expiration",
                  "type": "uint64"
                },
                {
                  "internalType": "bool",
                  "name": "approved_by_beneficiary",
                  "type": "bool"
                },
                {
                  "internalType": "bool",
                  "name": "approved_by_nominee",
                  "type": "bool"
                }
              ],
              "internalType": "struct CommonTypes.PendingBeneficiaryChange",
              "name": "proposed",
              "type": "tuple"
            }
          ],
          "internalType": "struct MinerTypes.GetBeneficiaryReturn",
          "name": "",
          "type": "tuple"
        }
      ],
      "stateMutability": "view",
      "type": "function"
    },
    {
      "inputs": [],
      "name": "get_owner",
      "outputs": [
        {
          "components": [
            {
              "internalType": "string",
              "name": "owner",
              "type": "string"
            }
          ],
          "internalType": "struct MinerTypes.GetOwnerReturn",
          "name": "",
          "type": "tuple"
        }
      ],
      "stateMutability": "view",
      "type": "function"
    },
    {
      "inputs": [],
      "name": "get_sector_size",
      "outputs": [
        {
          "components": [
            {
              "internalType": "uint64",
              "name": "sector_size",
              "type": "uint64"
            }
          ],
          "internalType": "struct MinerTypes.GetSectorSizeReturn",
          "name": "",
          "type": "tuple"
        }
      ],
      "stateMutability": "view",
      "type": "function"
    },
    {
      "inputs": [],
      "name": "get_vesting_funds",
      "outputs": [
        {
          "components": [
            {
              "components": [
                {
                  "internalType": "int64",
                  "name": "epoch",
                  "type": "int64"
                },
                {
                  "internalType": "int256",
                  "name": "amount",
                  "type": "int256"
                }
              ],
              "internalType": "struct CommonTypes.VestingFunds[]",
              "name": "vesting_funds",
              "type": "tuple[]"
            }
          ],
          "internalType": "struct MinerTypes.GetVestingFundsReturn",
          "name": "",
          "type": "tuple"
        }
      ],
      "stateMutability": "pure",
      "type": "function"
    },
    {
      "inputs": [
        {
          "components": [
            {
              "internalType": "string",
              "name": "addr",
              "type": "string"
            }
          ],
          "internalType": "struct MinerTypes.IsControllingAddressParam",
          "name": "params",
          "type": "tuple"
        }
      ],
      "name": "is_controlling_address",
      "outputs": [
        {
          "components": [
            {
              "internalType": "bool",
              "name": "is_controlling",
              "type": "bool"
            }
          ],
          "internalType": "struct MinerTypes.IsControllingAddressReturn",
          "name": "",
          "type": "tuple"
        }
      ],
      "stateMutability": "pure",
      "type": "function"
    },
    {
      "inputs": [
        {
          "internalType": "string",
          "name": "addr",
          "type": "string"
        }
      ],
      "name": "mock_set_owner",
      "outputs": [],
      "stateMutability": "nonpayable",
      "type": "function"
    }
  ],
  "bytecode": "0x60806040526000600160006101000a81548160ff0219169083151502179055503480156200002c57600080fd5b5060405162001b5038038062001b50833981810160405281019062000052919062000408565b8060009081620000639190620006a4565b50610800600660008060048111156200008157620000806200078b565b5b60048111156200009657620000956200078b565b5b815260200190815260200160002060006101000a81548167ffffffffffffffff021916908367ffffffffffffffff160217905550628000006006600060016004811115620000e957620000e86200078b565b5b6004811115620000fe57620000fd6200078b565b5b815260200190815260200160002060006101000a81548167ffffffffffffffff021916908367ffffffffffffffff160217905550632000000060066000600260048111156200015257620001516200078b565b5b60048111156200016757620001666200078b565b5b815260200190815260200160002060006101000a81548167ffffffffffffffff021916908367ffffffffffffffff1602179055506408000000006006600060036004811115620001bc57620001bb6200078b565b5b6004811115620001d157620001d06200078b565b5b815260200190815260200160002060006101000a81548167ffffffffffffffff021916908367ffffffffffffffff160217905550641000000000600660006004808111156200022557620002246200078b565b5b60048111156200023a57620002396200078b565b5b815260200190815260200160002060006101000a81548167ffffffffffffffff021916908367ffffffffffffffff16021790555050620007ba565b6000604051905090565b600080fd5b600080fd5b600080fd5b600080fd5b6000601f19601f8301169050919050565b7f4e487b7100000000000000000000000000000000000000000000000000000000600052604160045260246000fd5b620002de8262000293565b810181811067ffffffffffffffff821117156200030057620002ff620002a4565b5b80604052505050565b60006200031562000275565b9050620003238282620002d3565b919050565b600067ffffffffffffffff821115620003465762000345620002a4565b5b620003518262000293565b9050602081019050919050565b60005b838110156200037e57808201518184015260208101905062000361565b60008484015250505050565b6000620003a16200039b8462000328565b62000309565b905082815260208101848484011115620003c057620003bf6200028e565b5b620003cd8482856200035e565b509392505050565b600082601f830112620003ed57620003ec62000289565b5b8151620003ff8482602086016200038a565b91505092915050565b6000602082840312156200042157620004206200027f565b5b600082015167ffffffffffffffff81111562000442576200044162000284565b5b6200045084828501620003d5565b91505092915050565b600081519050919050565b7f4e487b7100000000000000000000000000000000000000000000000000000000600052602260045260246000fd5b60006002820490506001821680620004ac57607f821691505b602082108103620004c257620004c162000464565b5b50919050565b60008190508160005260206000209050919050565b60006020601f8301049050919050565b600082821b905092915050565b6000600883026200052c7fffffffffffffffffffffffffffffffffffffffffffffffffffffffffffffffff82620004ed565b620005388683620004ed565b95508019841693508086168417925050509392505050565b6000819050919050565b6000819050919050565b6000620005856200057f620005798462000550565b6200055a565b62000550565b9050919050565b6000819050919050565b620005a18362000564565b620005b9620005b0826200058c565b848454620004fa565b825550505050565b600090565b620005d0620005c1565b620005dd81848462000596565b505050565b5b818110156200060557620005f9600082620005c6565b600181019050620005e3565b5050565b601f82111562000654576200061e81620004c8565b6200062984620004dd565b8101602085101562000639578190505b620006516200064885620004dd565b830182620005e2565b50505b505050565b600082821c905092915050565b6000620006796000198460080262000659565b1980831691505092915050565b600062000694838362000666565b9150826002028217905092915050565b620006af8262000459565b67ffffffffffffffff811115620006cb57620006ca620002a4565b5b620006d7825462000493565b620006e482828562000609565b600060209050601f8311600181146200071c576000841562000707578287015190505b62000713858262000686565b86555062000783565b601f1984166200072c86620004c8565b60005b8281101562000756578489015182556001820191506020850194506020810190506200072f565b8683101562000776578489015162000772601f89168262000666565b8355505b6001600288020188555050505b505050505050565b7f4e487b7100000000000000000000000000000000000000000000000000000000600052602160045260246000fd5b61138680620007ca6000396000f3fe608060405234801561001057600080fd5b50600436106100935760003560e01c806381ab68dd1161006657806381ab68dd1461010e578063a9b494a11461012a578063d9fc907e14610148578063e8d3863314610166578063f5cd020c1461019657610093565b80630ac298dc14610098578063207f2cec146100b6578063214c471c146100d257806359cf9e17146100f0575b600080fd5b6100a06101b2565b6040516100ad9190610898565b60405180910390f35b6100d060048036038101906100cb9190610a03565b610272565b005b6100da610285565b6040516100e79190610b89565b60405180910390f35b6100f861033f565b6040516101059190610bc7565b60405180910390f35b61012860048036038101906101239190610cd8565b610365565b005b6101326104ac565b60405161013f9190610d4c565b60405180910390f35b61015061051e565b60405161015d9190610f10565b60405180910390f35b610180600480360381019061017b9190610f8a565b61065a565b60405161018d9190610fef565b60405180910390f35b6101b060048036038101906101ab9190610a03565b61067b565b005b6101ba6106a8565b60008080546101c890611039565b9050036101d457600080fd5b6040518060200160405280600080546101ec90611039565b80601f016020809104026020016040519081016040528092919081815260200182805461021890611039565b80156102655780601f1061023a57610100808354040283529160200191610265565b820191906000526020600020905b81548152906001019060200180831161024857829003601f168201915b5050505050815250905090565b80600090816102819190611220565b5050565b61028d6106bb565b6000600167ffffffffffffffff8111156102aa576102a96108d8565b5b6040519080825280602002602001820160405280156102e357816020015b6102d06106ce565b8152602001906001900390816102c85790505b5090506040518060400160405280636373840960070b8152602001686c6b935b8bbd4000008152508160008151811061031f5761031e6112f2565b5b602002602001018190525060405180602001604052808281525091505090565b6103476106eb565b604051806020016040528069021e19e0c9bab2400000815250905090565b600160009054906101000a900460ff1661044d57600060405180606001604052808360200151815260200160008152602001836040015167ffffffffffffffff16815250905060405180604001604052808360000151815260200182815250600260008201518160000190816103db9190611220565b50602082015181600101600082015181600001556020820151816001015560408201518160020160006101000a81548167ffffffffffffffff021916908367ffffffffffffffff160217905550505090505060018060006101000a81548160ff021916908315150217905550506104a9565b8060000151600260000190816104639190611220565b5080602001516002600101600001819055508060400151600260010160020160006101000a81548167ffffffffffffffff021916908367ffffffffffffffff1602179055505b50565b6104b46106fe565b604051806020016040528060066000600160048111156104d7576104d6611321565b5b60048111156104e9576104e8611321565b5b815260200190815260200160002060009054906101000a900467ffffffffffffffff1667ffffffffffffffff16815250905090565b61052661071b565b600160009054906101000a900460ff1661053f57600080fd5b610547610741565b6040518060400160405280600260405180604001604052908160008201805461056f90611039565b80601f016020809104026020016040519081016040528092919081815260200182805461059b90611039565b80156105e85780601f106105bd576101008083540402835291602001916105e8565b820191906000526020600020905b8154815290600101906020018083116105cb57829003601f168201915b505050505081526020016001820160405180606001604052908160008201548152602001600182015481526020016002820160009054906101000a900467ffffffffffffffff1667ffffffffffffffff1667ffffffffffffffff16815250508152505081526020018281525091505090565b61066261077e565b6040518060200160405280600015158152509050919050565b600080805461068990611039565b90501461069557600080fd5b80600090816106a49190611220565b5050565b6040518060200160405280606081525090565b6040518060200160405280606081525090565b6040518060400160405280600060070b8152602001600081525090565b6040518060200160405280600081525090565b6040518060200160405280600067ffffffffffffffff1681525090565b604051806040016040528061072e610793565b815260200161073b610741565b81525090565b6040518060a001604052806060815260200160008152602001600067ffffffffffffffff1681526020016000151581526020016000151581525090565b60405180602001604052806000151581525090565b6040518060400160405280606081526020016107ad6107b3565b81525090565b60405180606001604052806000815260200160008152602001600067ffffffffffffffff1681525090565b600081519050919050565b600082825260208201905092915050565b60005b838110156108185780820151818401526020810190506107fd565b60008484015250505050565b6000601f19601f8301169050919050565b6000610840826107de565b61084a81856107e9565b935061085a8185602086016107fa565b61086381610824565b840191505092915050565b6000602083016000830151848203600086015261088b8282610835565b9150508091505092915050565b600060208201905081810360008301526108b2818461086e565b905092915050565b6000604051905090565b600080fd5b600080fd5b600080fd5b600080fd5b7f4e487b7100000000000000000000000000000000000000000000000000000000600052604160045260246000fd5b61091082610824565b810181811067ffffffffffffffff8211171561092f5761092e6108d8565b5b80604052505050565b60006109426108ba565b905061094e8282610907565b919050565b600067ffffffffffffffff82111561096e5761096d6108d8565b5b61097782610824565b9050602081019050919050565b82818337600083830152505050565b60006109a66109a184610953565b610938565b9050828152602081018484840111156109c2576109c16108d3565b5b6109cd848285610984565b509392505050565b600082601f8301126109ea576109e96108ce565b5b81356109fa848260208601610993565b91505092915050565b600060208284031215610a1957610a186108c4565b5b600082013567ffffffffffffffff811115610a3757610a366108c9565b5b610a43848285016109d5565b91505092915050565b600081519050919050565b600082825260208201905092915050565b6000819050602082019050919050565b60008160070b9050919050565b610a8e81610a78565b82525050565b6000819050919050565b610aa781610a94565b82525050565b604082016000820151610ac36000850182610a85565b506020820151610ad66020850182610a9e565b50505050565b6000610ae88383610aad565b60408301905092915050565b6000602082019050919050565b6000610b0c82610a4c565b610b168185610a57565b9350610b2183610a68565b8060005b83811015610b52578151610b398882610adc565b9750610b4483610af4565b925050600181019050610b25565b5085935050505092915050565b60006020830160008301518482036000860152610b7c8282610b01565b9150508091505092915050565b60006020820190508181036000830152610ba38184610b5f565b905092915050565b602082016000820151610bc16000850182610a9e565b50505050565b6000602082019050610bdc6000830184610bab565b92915050565b600080fd5b600080fd5b610bf581610a94565b8114610c0057600080fd5b50565b600081359050610c1281610bec565b92915050565b600067ffffffffffffffff82169050919050565b610c3581610c18565b8114610c4057600080fd5b50565b600081359050610c5281610c2c565b92915050565b600060608284031215610c6e57610c6d610be2565b5b610c786060610938565b9050600082013567ffffffffffffffff811115610c9857610c97610be7565b5b610ca4848285016109d5565b6000830152506020610cb884828501610c03565b6020830152506040610ccc84828501610c43565b60408301525092915050565b600060208284031215610cee57610ced6108c4565b5b600082013567ffffffffffffffff811115610d0c57610d0b6108c9565b5b610d1884828501610c58565b91505092915050565b610d2a81610c18565b82525050565b602082016000820151610d466000850182610d21565b50505050565b6000602082019050610d616000830184610d30565b92915050565b606082016000820151610d7d6000850182610a9e565b506020820151610d906020850182610a9e565b506040820151610da36040850182610d21565b50505050565b60006080830160008301518482036000860152610dc68282610835565b9150506020830151610ddb6020860182610d67565b508091505092915050565b600081519050919050565b600082825260208201905092915050565b6000610e0d82610de6565b610e178185610df1565b9350610e278185602086016107fa565b610e3081610824565b840191505092915050565b60008115159050919050565b610e5081610e3b565b82525050565b600060a0830160008301518482036000860152610e738282610e02565b9150506020830151610e886020860182610a9e565b506040830151610e9b6040860182610d21565b506060830151610eae6060860182610e47565b506080830151610ec16080860182610e47565b508091505092915050565b60006040830160008301518482036000860152610ee98282610da9565b91505060208301518482036020860152610f038282610e56565b9150508091505092915050565b60006020820190508181036000830152610f2a8184610ecc565b905092915050565b600060208284031215610f4857610f47610be2565b5b610f526020610938565b9050600082013567ffffffffffffffff811115610f7257610f71610be7565b5b610f7e848285016109d5565b60008301525092915050565b600060208284031215610fa057610f9f6108c4565b5b600082013567ffffffffffffffff811115610fbe57610fbd6108c9565b5b610fca84828501610f32565b91505092915050565b602082016000820151610fe96000850182610e47565b50505050565b60006020820190506110046000830184610fd3565b92915050565b7f4e487b7100000000000000000000000000000000000000000000000000000000600052602260045260246000fd5b6000600282049050600182168061105157607f821691505b6020821081036110645761106361100a565b5b50919050565b60008190508160005260206000209050919050565b60006020601f8301049050919050565b600082821b905092915050565b6000600883026110cc7fffffffffffffffffffffffffffffffffffffffffffffffffffffffffffffffff8261108f565b6110d6868361108f565b95508019841693508086168417925050509392505050565b6000819050919050565b6000819050919050565b600061111d611118611113846110ee565b6110f8565b6110ee565b9050919050565b6000819050919050565b61113783611102565b61114b61114382611124565b84845461109c565b825550505050565b600090565b611160611153565b61116b81848461112e565b505050565b5b8181101561118f57611184600082611158565b600181019050611171565b5050565b601f8211156111d4576111a58161106a565b6111ae8461107f565b810160208510156111bd578190505b6111d16111c98561107f565b830182611170565b50505b505050565b600082821c905092915050565b60006111f7600019846008026111d9565b1980831691505092915050565b600061121083836111e6565b9150826002028217905092915050565b611229826107de565b67ffffffffffffffff811115611242576112416108d8565b5b61124c8254611039565b611257828285611193565b600060209050601f83116001811461128a5760008415611278578287015190505b6112828582611204565b8655506112ea565b601f1984166112988661106a565b60005b828110156112c05784890151825560018201915060208501945060208101905061129b565b868310156112dd57848901516112d9601f8916826111e6565b8355505b6001600288020188555050505b505050505050565b7f4e487b7100000000000000000000000000000000000000000000000000000000600052603260045260246000fd5b7f4e487b7100000000000000000000000000000000000000000000000000000000600052602160045260246000fdfea264697066735822122049770cf8f11c945c6af54c4b36d6062671b8775ad61c4adebef5382bef9a608964736f6c63430008110033",
  "linkReferences": {},
  "deployedLinkReferences": {}
}