{
  "_format": "hh-sol-artifact-1",
  "contractName": "CrypticVault",
  "sourceName": "contracts/CrypticVault.sol",
  "abi": [
    {
      "anonymous": false,
      "inputs": [
        {
          "indexed": true,
          "internalType": "address",
          "name": "previousOwner",
          "type": "address"
        },
        {
          "indexed": true,
          "internalType": "address",
          "name": "newOwner",
          "type": "address"
        }
      ],
      "name": "OwnershipTransferred",
      "type": "event"
    },
    {
      "anonymous": false,
      "inputs": [
        {
          "indexed": false,
          "internalType": "address",
          "name": "",
          "type": "address"
        },
        {
          "indexed": false,
          "internalType": "address",
          "name": "",
          "type": "address"
        }
      ],
      "name": "TokenCreated",
      "type": "event"
    },
    {
      "anonymous": false,
      "inputs": [
        {
          "indexed": false,
          "internalType": "address",
          "name": "",
          "type": "address"
        },
        {
          "indexed": false,
          "internalType": "address",
          "name": "",
          "type": "address"
        },
        {
          "indexed": false,
          "internalType": "address",
          "name": "",
          "type": "address"
        },
        {
          "indexed": false,
          "internalType": "uint256",
          "name": "",
          "type": "uint256"
        }
      ],
      "name": "TokenTransfered",
      "type": "event"
    },
    {
      "inputs": [
        {
          "internalType": "address",
          "name": "tokenAddress",
          "type": "address"
        },
        {
          "internalType": "uint256",
          "name": "start",
          "type": "uint256"
        },
        {
          "internalType": "uint256",
          "name": "end",
          "type": "uint256"
        }
      ],
      "name": "bulkMintERC721",
      "outputs": [],
      "stateMutability": "nonpayable",
      "type": "function"
    },
    {
      "inputs": [
        {
          "internalType": "address",
          "name": "userAddress",
          "type": "address"
        },
        {
          "internalType": "string",
          "name": "subject",
          "type": "string"
        },
        {
          "internalType": "string",
          "name": "message",
          "type": "string"
        }
      ],
      "name": "createEmergencyAlert",
      "outputs": [],
      "stateMutability": "nonpayable",
      "type": "function"
    },
    {
      "inputs": [
        {
          "internalType": "string",
          "name": "cid",
          "type": "string"
        }
      ],
      "name": "createMembers",
      "outputs": [],
      "stateMutability": "nonpayable",
      "type": "function"
    },
    {
      "inputs": [
        {
          "internalType": "string",
          "name": "name",
          "type": "string"
        },
        {
          "internalType": "string",
          "name": "symbol",
          "type": "string"
        }
      ],
      "name": "createToken",
      "outputs": [],
      "stateMutability": "nonpayable",
      "type": "function"
    },
    {
      "inputs": [
        {
          "internalType": "address",
          "name": "userAddress",
          "type": "address"
        }
      ],
      "name": "getDocuments",
      "outputs": [
        {
          "internalType": "string[]",
          "name": "",
          "type": "string[]"
        }
      ],
      "stateMutability": "view",
      "type": "function"
    },
    {
      "inputs": [
        {
          "internalType": "address",
          "name": "userAddress",
          "type": "address"
        }
      ],
      "name": "getEmergencyAlert",
      "outputs": [
        {
          "components": [
            {
              "internalType": "address",
              "name": "user",
              "type": "address"
            },
            {
              "internalType": "string",
              "name": "subject",
              "type": "string"
            },
            {
              "internalType": "string",
              "name": "message",
              "type": "string"
            }
          ],
          "internalType": "struct CrypticVault.emergencyAlert",
          "name": "",
          "type": "tuple"
        }
      ],
      "stateMutability": "view",
      "type": "function"
    },
    {
      "inputs": [
        {
          "internalType": "address",
          "name": "caller",
          "type": "address"
        }
      ],
      "name": "getLoginStatus",
      "outputs": [
        {
          "internalType": "bool",
          "name": "",
          "type": "bool"
        }
      ],
      "stateMutability": "view",
      "type": "function"
    },
    {
      "inputs": [
        {
          "internalType": "address",
          "name": "userAddress",
          "type": "address"
        }
      ],
      "name": "getMembers",
      "outputs": [
        {
          "internalType": "string[]",
          "name": "",
          "type": "string[]"
        }
      ],
      "stateMutability": "view",
      "type": "function"
    },
    {
      "inputs": [
        {
          "internalType": "address",
          "name": "userAddress",
          "type": "address"
        }
      ],
      "name": "getTokenAddress",
      "outputs": [
        {
          "internalType": "address",
          "name": "",
          "type": "address"
        }
      ],
      "stateMutability": "view",
      "type": "function"
    },
    {
      "inputs": [
        {
          "internalType": "address",
          "name": "userAddress",
          "type": "address"
        }
      ],
      "name": "getTokenId",
      "outputs": [
        {
          "internalType": "uint256",
          "name": "",
          "type": "uint256"
        }
      ],
      "stateMutability": "view",
      "type": "function"
    },
    {
      "inputs": [
        {
          "internalType": "address",
          "name": "adminAddress",
          "type": "address"
        },
        {
          "internalType": "address",
          "name": "memberAddress",
          "type": "address"
        }
      ],
      "name": "getTransferStatus",
      "outputs": [
        {
          "internalType": "bool",
          "name": "",
          "type": "bool"
        }
      ],
      "stateMutability": "view",
      "type": "function"
    },
    {
      "inputs": [],
      "name": "owner",
      "outputs": [
        {
          "internalType": "address",
          "name": "",
          "type": "address"
        }
      ],
      "stateMutability": "view",
      "type": "function"
    },
    {
      "inputs": [],
      "name": "renounceOwnership",
      "outputs": [],
      "stateMutability": "nonpayable",
      "type": "function"
    },
    {
      "inputs": [
        {
          "internalType": "uint256",
          "name": "tokenId",
          "type": "uint256"
        }
      ],
      "name": "setTokenId",
      "outputs": [],
      "stateMutability": "nonpayable",
      "type": "function"
    },
    {
      "inputs": [
        {
          "internalType": "string",
          "name": "cid",
          "type": "string"
        }
      ],
      "name": "storeDocuments",
      "outputs": [],
      "stateMutability": "nonpayable",
      "type": "function"
    },
    {
      "inputs": [
        {
          "internalType": "address",
          "name": "newOwner",
          "type": "address"
        }
      ],
      "name": "transferOwnership",
      "outputs": [],
      "stateMutability": "nonpayable",
      "type": "function"
    },
    {
      "inputs": [
        {
          "internalType": "address",
          "name": "from",
          "type": "address"
        },
        {
          "internalType": "address payable",
          "name": "to",
          "type": "address"
        },
        {
          "internalType": "address",
          "name": "token",
          "type": "address"
        },
        {
          "internalType": "uint256",
          "name": "amount",
          "type": "uint256"
        }
      ],
      "name": "transferToken",
      "outputs": [],
      "stateMutability": "nonpayable",
      "type": "function"
    }
  ],
  "bytecode": "0x608060405234801561001057600080fd5b5061002d61002261003260201b60201c565b61003a60201b60201c565b6100fe565b600033905090565b60008060009054906101000a900473ffffffffffffffffffffffffffffffffffffffff169050816000806101000a81548173ffffffffffffffffffffffffffffffffffffffff021916908373ffffffffffffffffffffffffffffffffffffffff1602179055508173ffffffffffffffffffffffffffffffffffffffff168173ffffffffffffffffffffffffffffffffffffffff167f8be0079c531659141344cd1fd0a4f28419497f9722a3daafe3b4186f6b6457e060405160405180910390a35050565b614b86806200010e6000396000f3fe60806040523480156200001157600080fd5b5060043610620001245760003560e01c8063a894b1e411620000b1578063ddc8be3b116200007b578063ddc8be3b14620002ef578063e3d97d861462000325578063e95fd1551462000345578063f1537686146200037b578063f2fde38b14620003b15762000124565b8063a894b1e41462000259578063b8d7b6691462000279578063b9d363ec14620002af578063c929ccf314620002cf5762000124565b8063523070e211620000f3578063523070e214620001d5578063715018a614620001f55780637854462914620002015780638da5cb5b14620002375762000124565b806327f50a2d14620001295780632c54de4f146200015f5780632f2f2d56146200017f5780633b1a0174146200019f575b600080fd5b620001476004803603810190620001419190620012ba565b620003d1565b60405162000156919062001863565b60405180910390f35b6200017d600480360381019062000177919062001327565b620004f3565b005b6200019d6004803603810190620001979190620014b6565b62000642565b005b620001bd6004803603810190620001b79190620012e6565b620006c1565b604051620001cc919062001887565b60405180910390f35b620001f36004803603810190620001ed91906200141b565b62000755565b005b620001ff620008dd565b005b6200021f6004803603810190620002199190620012ba565b620008f5565b6040516200022e919062001863565b60405180910390f35b6200024162000a17565b6040516200025091906200177f565b60405180910390f35b62000277600480360381019062000271919062001393565b62000a40565b005b620002976004803603810190620002919190620012ba565b62000b02565b604051620002a691906200177f565b60405180910390f35b620002cd6004803603810190620002c7919062001471565b62000b6b565b005b620002ed6004803603810190620002e7919062001529565b62000be9565b005b6200030d6004803603810190620003079190620012ba565b62000c30565b6040516200031c919062001923565b60405180910390f35b6200034360048036038101906200033d919062001471565b62000e15565b005b6200036360048036038101906200035d9190620012ba565b62000e93565b60405162000372919062001887565b60405180910390f35b620003996004803603810190620003939190620012ba565b62000ee9565b604051620003a8919062001947565b60405180910390f35b620003cf6004803603810190620003c99190620012ba565b62000f32565b005b6060600760008373ffffffffffffffffffffffffffffffffffffffff1673ffffffffffffffffffffffffffffffffffffffff168152602001908152602001600020805480602002602001604051908101604052809291908181526020016000905b82821015620004e8578382906000526020600020018054620004549062001b43565b80601f0160208091040260200160405190810160405280929190818152602001828054620004829062001b43565b8015620004d35780601f10620004a757610100808354040283529160200191620004d3565b820191906000526020600020905b815481529060010190602001808311620004b557829003601f168201915b50505050508152602001906001019062000432565b505050509050919050565b8173ffffffffffffffffffffffffffffffffffffffff166368155ec1858585856040518563ffffffff1660e01b8152600401620005349493929190620017c9565b600060405180830381600087803b1580156200054f57600080fd5b505af115801562000564573d6000803e3d6000fd5b505050506001600260008673ffffffffffffffffffffffffffffffffffffffff1673ffffffffffffffffffffffffffffffffffffffff16815260200190815260200160002060008573ffffffffffffffffffffffffffffffffffffffff1673ffffffffffffffffffffffffffffffffffffffff16815260200190815260200160002060006101000a81548160ff0219169083151502179055507fa7814aaf178d6c8e61b2703f3dc1b8328dd6c99cbb405bf8f1bb0cb1bbb051a58484848460405162000634949392919062001816565b60405180910390a150505050565b6000828260405162000654906200110e565b62000661929190620018a4565b604051809103906000f0801580156200067e573d6000803e3d6000fd5b5090507fd5f9bdf12adf29dab0248c349842c3822d53ae2bb4f36352f301630d018c81393382604051620006b49291906200179c565b60405180910390a1505050565b6000600260008473ffffffffffffffffffffffffffffffffffffffff1673ffffffffffffffffffffffffffffffffffffffff16815260200190815260200160002060008373ffffffffffffffffffffffffffffffffffffffff1673ffffffffffffffffffffffffffffffffffffffff16815260200190815260200160002060009054906101000a900460ff16905092915050565b60008290505b81811015620007e9578373ffffffffffffffffffffffffffffffffffffffff166340d097c3336040518263ffffffff1660e01b81526004016200079f91906200177f565b600060405180830381600087803b158015620007ba57600080fd5b505af1158015620007cf573d6000803e3d6000fd5b505050508080620007e09062001baf565b9150506200075b565b5060018060003373ffffffffffffffffffffffffffffffffffffffff1673ffffffffffffffffffffffffffffffffffffffff16815260200190815260200160002060006101000a81548160ff02191690831515021790555082600360003373ffffffffffffffffffffffffffffffffffffffff1673ffffffffffffffffffffffffffffffffffffffff16815260200190815260200160002060006101000a81548173ffffffffffffffffffffffffffffffffffffffff021916908373ffffffffffffffffffffffffffffffffffffffff160217905550620008d8600182620008d2919062001a29565b62000be9565b505050565b620008e762000fbd565b620008f3600062001042565b565b6060600460008373ffffffffffffffffffffffffffffffffffffffff1673ffffffffffffffffffffffffffffffffffffffff168152602001908152602001600020805480602002602001604051908101604052809291908181526020016000905b8282101562000a0c578382906000526020600020018054620009789062001b43565b80601f0160208091040260200160405190810160405280929190818152602001828054620009a69062001b43565b8015620009f75780601f10620009cb57610100808354040283529160200191620009f7565b820191906000526020600020905b815481529060010190602001808311620009d957829003601f168201915b50505050508152602001906001019062000956565b505050509050919050565b60008060009054906101000a900473ffffffffffffffffffffffffffffffffffffffff16905090565b6000600660003373ffffffffffffffffffffffffffffffffffffffff1673ffffffffffffffffffffffffffffffffffffffff1681526020019081526020016000209050838160000160006101000a81548173ffffffffffffffffffffffffffffffffffffffff021916908373ffffffffffffffffffffffffffffffffffffffff1602179055508281600101908051906020019062000ae09291906200111c565b508181600201908051906020019062000afb9291906200111c565b5050505050565b6000600360008373ffffffffffffffffffffffffffffffffffffffff1673ffffffffffffffffffffffffffffffffffffffff16815260200190815260200160002060009054906101000a900473ffffffffffffffffffffffffffffffffffffffff169050919050565b600460003373ffffffffffffffffffffffffffffffffffffffff1673ffffffffffffffffffffffffffffffffffffffff1681526020019081526020016000208190806001815401808255809150506001900390600052602060002001600090919091909150908051906020019062000be59291906200111c565b5050565b80600560003373ffffffffffffffffffffffffffffffffffffffff1673ffffffffffffffffffffffffffffffffffffffff1681526020019081526020016000208190555050565b62000c3a620011ad565b600660008373ffffffffffffffffffffffffffffffffffffffff1673ffffffffffffffffffffffffffffffffffffffff1681526020019081526020016000206040518060600160405290816000820160009054906101000a900473ffffffffffffffffffffffffffffffffffffffff1673ffffffffffffffffffffffffffffffffffffffff1673ffffffffffffffffffffffffffffffffffffffff16815260200160018201805462000cec9062001b43565b80601f016020809104026020016040519081016040528092919081815260200182805462000d1a9062001b43565b801562000d6b5780601f1062000d3f5761010080835404028352916020019162000d6b565b820191906000526020600020905b81548152906001019060200180831162000d4d57829003601f168201915b5050505050815260200160028201805462000d869062001b43565b80601f016020809104026020016040519081016040528092919081815260200182805462000db49062001b43565b801562000e055780601f1062000dd95761010080835404028352916020019162000e05565b820191906000526020600020905b81548152906001019060200180831162000de757829003601f168201915b5050505050815250509050919050565b600760003373ffffffffffffffffffffffffffffffffffffffff1673ffffffffffffffffffffffffffffffffffffffff1681526020019081526020016000208190806001815401808255809150506001900390600052602060002001600090919091909150908051906020019062000e8f9291906200111c565b5050565b6000600160008373ffffffffffffffffffffffffffffffffffffffff1673ffffffffffffffffffffffffffffffffffffffff16815260200190815260200160002060009054906101000a900460ff169050919050565b6000600560008373ffffffffffffffffffffffffffffffffffffffff1673ffffffffffffffffffffffffffffffffffffffff168152602001908152602001600020549050919050565b62000f3c62000fbd565b600073ffffffffffffffffffffffffffffffffffffffff168173ffffffffffffffffffffffffffffffffffffffff16141562000faf576040517f08c379a000000000000000000000000000000000000000000000000000000000815260040162000fa690620018df565b60405180910390fd5b62000fba8162001042565b50565b62000fc762001106565b73ffffffffffffffffffffffffffffffffffffffff1662000fe762000a17565b73ffffffffffffffffffffffffffffffffffffffff161462001040576040517f08c379a0000000000000000000000000000000000000000000000000000000008152600401620010379062001901565b60405180910390fd5b565b60008060009054906101000a900473ffffffffffffffffffffffffffffffffffffffff169050816000806101000a81548173ffffffffffffffffffffffffffffffffffffffff021916908373ffffffffffffffffffffffffffffffffffffffff1602179055508173ffffffffffffffffffffffffffffffffffffffff168173ffffffffffffffffffffffffffffffffffffffff167f8be0079c531659141344cd1fd0a4f28419497f9722a3daafe3b4186f6b6457e060405160405180910390a35050565b600033905090565b612def8062001d6283390190565b8280546200112a9062001b43565b90600052602060002090601f0160209004810192826200114e57600085556200119a565b82601f106200116957805160ff19168380011785556200119a565b828001600101855582156200119a579182015b82811115620011995782518255916020019190600101906200117c565b5b509050620011a99190620011e4565b5090565b6040518060600160405280600073ffffffffffffffffffffffffffffffffffffffff16815260200160608152602001606081525090565b5b80821115620011ff576000816000905550600101620011e5565b5090565b60006200121a62001214846200198d565b62001964565b9050828152602081018484840111156200123357600080fd5b6200124084828562001afe565b509392505050565b600081359050620012598162001d13565b92915050565b600081359050620012708162001d2d565b92915050565b600082601f8301126200128857600080fd5b81356200129a84826020860162001203565b91505092915050565b600081359050620012b48162001d47565b92915050565b600060208284031215620012cd57600080fd5b6000620012dd8482850162001248565b91505092915050565b60008060408385031215620012fa57600080fd5b60006200130a8582860162001248565b92505060206200131d8582860162001248565b9150509250929050565b600080600080608085870312156200133e57600080fd5b60006200134e8782880162001248565b945050602062001361878288016200125f565b9350506040620013748782880162001248565b92505060606200138787828801620012a3565b91505092959194509250565b600080600060608486031215620013a957600080fd5b6000620013b98682870162001248565b935050602084013567ffffffffffffffff811115620013d757600080fd5b620013e58682870162001276565b925050604084013567ffffffffffffffff8111156200140357600080fd5b620014118682870162001276565b9150509250925092565b6000806000606084860312156200143157600080fd5b6000620014418682870162001248565b93505060206200145486828701620012a3565b92505060406200146786828701620012a3565b9150509250925092565b6000602082840312156200148457600080fd5b600082013567ffffffffffffffff8111156200149f57600080fd5b620014ad8482850162001276565b91505092915050565b60008060408385031215620014ca57600080fd5b600083013567ffffffffffffffff811115620014e557600080fd5b620014f38582860162001276565b925050602083013567ffffffffffffffff8111156200151157600080fd5b6200151f8582860162001276565b9150509250929050565b6000602082840312156200153c57600080fd5b60006200154c84828501620012a3565b91505092915050565b600062001563838362001641565b905092915050565b620015768162001ac2565b82525050565b620015878162001a78565b82525050565b620015988162001a64565b82525050565b620015a98162001a64565b82525050565b6000620015bc82620019d3565b620015c88185620019f6565b935083602082028501620015dc85620019c3565b8060005b858110156200161e5784840389528151620015fc858262001555565b94506200160983620019e9565b925060208a01995050600181019050620015e0565b50829750879550505050505092915050565b6200163b8162001a8c565b82525050565b60006200164e82620019de565b6200165a818562001a07565b93506200166c81856020860162001b0d565b620016778162001c8a565b840191505092915050565b60006200168f82620019de565b6200169b818562001a18565b9350620016ad81856020860162001b0d565b620016b88162001c8a565b840191505092915050565b6000620016d260268362001a18565b9150620016df8262001c9b565b604082019050919050565b6000620016f960208362001a18565b9150620017068262001cea565b602082019050919050565b60006060830160008301516200172b60008601826200158d565b506020830151848203602086015262001745828262001641565b9150506040830151848203604086015262001761828262001641565b9150508091505092915050565b620017798162001ab8565b82525050565b60006020820190506200179660008301846200159e565b92915050565b6000604082019050620017b360008301856200159e565b620017c260208301846200159e565b9392505050565b6000608082019050620017e060008301876200159e565b620017ef60208301866200157c565b620017fe60408301856200159e565b6200180d60608301846200176e565b95945050505050565b60006080820190506200182d60008301876200159e565b6200183c60208301866200156b565b6200184b60408301856200159e565b6200185a60608301846200176e565b95945050505050565b600060208201905081810360008301526200187f8184620015af565b905092915050565b60006020820190506200189e600083018462001630565b92915050565b60006040820190508181036000830152620018c0818562001682565b90508181036020830152620018d6818462001682565b90509392505050565b60006020820190508181036000830152620018fa81620016c3565b9050919050565b600060208201905081810360008301526200191c81620016ea565b9050919050565b600060208201905081810360008301526200193f818462001711565b905092915050565b60006020820190506200195e60008301846200176e565b92915050565b60006200197062001983565b90506200197e828262001b79565b919050565b6000604051905090565b600067ffffffffffffffff821115620019ab57620019aa62001c5b565b5b620019b68262001c8a565b9050602081019050919050565b6000819050602082019050919050565b600081519050919050565b600081519050919050565b6000602082019050919050565b600082825260208201905092915050565b600082825260208201905092915050565b600082825260208201905092915050565b600062001a368262001ab8565b915062001a438362001ab8565b92508282101562001a595762001a5862001bfd565b5b828203905092915050565b600062001a718262001a98565b9050919050565b600062001a858262001a98565b9050919050565b60008115159050919050565b600073ffffffffffffffffffffffffffffffffffffffff82169050919050565b6000819050919050565b600062001acf8262001ad6565b9050919050565b600062001ae38262001aea565b9050919050565b600062001af78262001a98565b9050919050565b82818337600083830152505050565b60005b8381101562001b2d57808201518184015260208101905062001b10565b8381111562001b3d576000848401525b50505050565b6000600282049050600182168062001b5c57607f821691505b6020821081141562001b735762001b7262001c2c565b5b50919050565b62001b848262001c8a565b810181811067ffffffffffffffff8211171562001ba65762001ba562001c5b565b5b80604052505050565b600062001bbc8262001ab8565b91507fffffffffffffffffffffffffffffffffffffffffffffffffffffffffffffffff82141562001bf25762001bf162001bfd565b5b600182019050919050565b7f4e487b7100000000000000000000000000000000000000000000000000000000600052601160045260246000fd5b7f4e487b7100000000000000000000000000000000000000000000000000000000600052602260045260246000fd5b7f4e487b7100000000000000000000000000000000000000000000000000000000600052604160045260246000fd5b6000601f19601f8301169050919050565b7f4f776e61626c653a206e6577206f776e657220697320746865207a65726f206160008201527f6464726573730000000000000000000000000000000000000000000000000000602082015250565b7f4f776e61626c653a2063616c6c6572206973206e6f7420746865206f776e6572600082015250565b62001d1e8162001a64565b811462001d2a57600080fd5b50565b62001d388162001a78565b811462001d4457600080fd5b50565b62001d528162001ab8565b811462001d5e57600080fd5b5056fe60806040523480156200001157600080fd5b5060405162002def38038062002def833981810160405281019062000037919062000197565b818181600090805190602001906200005192919062000075565b5080600190805190602001906200006a92919062000075565b50505050506200037a565b82805462000083906200029f565b90600052602060002090601f016020900481019282620000a75760008555620000f3565b82601f10620000c257805160ff1916838001178555620000f3565b82800160010185558215620000f3579182015b82811115620000f2578251825591602001919060010190620000d5565b5b50905062000102919062000106565b5090565b5b808211156200012157600081600090555060010162000107565b5090565b60006200013c620001368462000233565b6200020a565b9050828152602081018484840111156200015557600080fd5b6200016284828562000269565b509392505050565b600082601f8301126200017c57600080fd5b81516200018e84826020860162000125565b91505092915050565b60008060408385031215620001ab57600080fd5b600083015167ffffffffffffffff811115620001c657600080fd5b620001d4858286016200016a565b925050602083015167ffffffffffffffff811115620001f257600080fd5b62000200858286016200016a565b9150509250929050565b60006200021662000229565b9050620002248282620002d5565b919050565b6000604051905090565b600067ffffffffffffffff8211156200025157620002506200033a565b5b6200025c8262000369565b9050602081019050919050565b60005b83811015620002895780820151818401526020810190506200026c565b8381111562000299576000848401525b50505050565b60006002820490506001821680620002b857607f821691505b60208210811415620002cf57620002ce6200030b565b5b50919050565b620002e08262000369565b810181811067ffffffffffffffff821117156200030257620003016200033a565b5b80604052505050565b7f4e487b7100000000000000000000000000000000000000000000000000000000600052602260045260246000fd5b7f4e487b7100000000000000000000000000000000000000000000000000000000600052604160045260246000fd5b6000601f19601f8301169050919050565b612a65806200038a6000396000f3fe608060405234801561001057600080fd5b50600436106100f55760003560e01c80636352211e11610097578063a22cb46511610066578063a22cb46514610282578063b88d4fde1461029e578063c87b56dd146102ba578063e985e9c5146102ea576100f5565b80636352211e146101e857806368155ec11461021857806370a082311461023457806395d89b4114610264576100f5565b8063095ea7b3116100d3578063095ea7b31461017857806323b872dd1461019457806340d097c3146101b057806342842e0e146101cc576100f5565b806301ffc9a7146100fa57806306fdde031461012a578063081812fc14610148575b600080fd5b610114600480360381019061010f9190611b30565b61031a565b6040516101219190611f59565b60405180910390f35b6101326103fc565b60405161013f9190611f74565b60405180910390f35b610162600480360381019061015d9190611b82565b61048e565b60405161016f9190611ebb565b60405180910390f35b610192600480360381019061018d9190611af4565b610513565b005b6101ae60048036038101906101a991906119ee565b61062b565b005b6101ca60048036038101906101c59190611926565b610684565b005b6101e660048036038101906101e191906119ee565b6106aa565b005b61020260048036038101906101fd9190611b82565b6106ca565b60405161020f9190611ebb565b60405180910390f35b610232600480360381019061022d919061198b565b61077c565b005b61024e60048036038101906102499190611926565b61089f565b60405161025b9190612176565b60405180910390f35b61026c610957565b6040516102799190611f74565b60405180910390f35b61029c60048036038101906102979190611ab8565b6109e9565b005b6102b860048036038101906102b39190611a3d565b6109ff565b005b6102d460048036038101906102cf9190611b82565b610a61565b6040516102e19190611f74565b60405180910390f35b61030460048036038101906102ff919061194f565b610b08565b6040516103119190611f59565b60405180910390f35b60007f80ac58cd000000000000000000000000000000000000000000000000000000007bffffffffffffffffffffffffffffffffffffffffffffffffffffffff1916827bffffffffffffffffffffffffffffffffffffffffffffffffffffffff191614806103e557507f5b5e139f000000000000000000000000000000000000000000000000000000007bffffffffffffffffffffffffffffffffffffffffffffffffffffffff1916827bffffffffffffffffffffffffffffffffffffffffffffffffffffffff1916145b806103f557506103f482610b9c565b5b9050919050565b60606000805461040b906123e3565b80601f0160208091040260200160405190810160405280929190818152602001828054610437906123e3565b80156104845780601f1061045957610100808354040283529160200191610484565b820191906000526020600020905b81548152906001019060200180831161046757829003601f168201915b5050505050905090565b600061049982610c06565b6104d8576040517f08c379a00000000000000000000000000000000000000000000000000000000081526004016104cf906120f6565b60405180910390fd5b6004600083815260200190815260200160002060009054906101000a900473ffffffffffffffffffffffffffffffffffffffff169050919050565b600061051e826106ca565b90508073ffffffffffffffffffffffffffffffffffffffff168373ffffffffffffffffffffffffffffffffffffffff16141561058f576040517f08c379a000000000000000000000000000000000000000000000000000000000815260040161058690612136565b60405180910390fd5b8073ffffffffffffffffffffffffffffffffffffffff166105ae610c72565b73ffffffffffffffffffffffffffffffffffffffff1614806105dd57506105dc816105d7610c72565b610b08565b5b61061c576040517f08c379a000000000000000000000000000000000000000000000000000000000815260040161061390612056565b60405180910390fd5b6106268383610c7a565b505050565b6106358382610d33565b610674576040517f08c379a000000000000000000000000000000000000000000000000000000000815260040161066b90612156565b60405180910390fd5b61067f838383610e11565b505050565b60006106906006611078565b905061069c6006611086565b6106a6828261109c565b5050565b6106c5838383604051806020016040528060008152506109ff565b505050565b6000806002600084815260200190815260200160002060009054906101000a900473ffffffffffffffffffffffffffffffffffffffff169050600073ffffffffffffffffffffffffffffffffffffffff168173ffffffffffffffffffffffffffffffffffffffff161415610773576040517f08c379a000000000000000000000000000000000000000000000000000000000815260040161076a90612096565b60405180910390fd5b80915050919050565b600073ffffffffffffffffffffffffffffffffffffffff168273ffffffffffffffffffffffffffffffffffffffff1614610824578173ffffffffffffffffffffffffffffffffffffffff166323b872dd8585846040518463ffffffff1660e01b81526004016107ed93929190611ed6565b600060405180830381600087803b15801561080757600080fd5b505af115801561081b573d6000803e3d6000fd5b50505050610899565b8273ffffffffffffffffffffffffffffffffffffffff166108fc829081150290604051600060405180830381858888f19350505050610898576040517f08c379a000000000000000000000000000000000000000000000000000000000815260040161088f906120b6565b60405180910390fd5b5b50505050565b60008073ffffffffffffffffffffffffffffffffffffffff168273ffffffffffffffffffffffffffffffffffffffff161415610910576040517f08c379a000000000000000000000000000000000000000000000000000000000815260040161090790612076565b60405180910390fd5b600360008373ffffffffffffffffffffffffffffffffffffffff1673ffffffffffffffffffffffffffffffffffffffff168152602001908152602001600020549050919050565b606060018054610966906123e3565b80601f0160208091040260200160405190810160405280929190818152602001828054610992906123e3565b80156109df5780601f106109b4576101008083540402835291602001916109df565b820191906000526020600020905b8154815290600101906020018083116109c257829003601f168201915b5050505050905090565b6109fb6109f4610c72565b83836110ba565b5050565b610a10610a0a610c72565b83610d33565b610a4f576040517f08c379a0000000000000000000000000000000000000000000000000000000008152600401610a4690612156565b60405180910390fd5b610a5b84848484611227565b50505050565b6060610a6c82610c06565b610aab576040517f08c379a0000000000000000000000000000000000000000000000000000000008152600401610aa290612116565b60405180910390fd5b6000610ab5611283565b90506000815111610ad55760405180602001604052806000815250610b00565b80610adf8461129a565b604051602001610af0929190611e97565b6040516020818303038152906040525b915050919050565b6000600560008473ffffffffffffffffffffffffffffffffffffffff1673ffffffffffffffffffffffffffffffffffffffff16815260200190815260200160002060008373ffffffffffffffffffffffffffffffffffffffff1673ffffffffffffffffffffffffffffffffffffffff16815260200190815260200160002060009054906101000a900460ff16905092915050565b60007f01ffc9a7000000000000000000000000000000000000000000000000000000007bffffffffffffffffffffffffffffffffffffffffffffffffffffffff1916827bffffffffffffffffffffffffffffffffffffffffffffffffffffffff1916149050919050565b60008073ffffffffffffffffffffffffffffffffffffffff166002600084815260200190815260200160002060009054906101000a900473ffffffffffffffffffffffffffffffffffffffff1673ffffffffffffffffffffffffffffffffffffffff1614159050919050565b600033905090565b816004600083815260200190815260200160002060006101000a81548173ffffffffffffffffffffffffffffffffffffffff021916908373ffffffffffffffffffffffffffffffffffffffff160217905550808273ffffffffffffffffffffffffffffffffffffffff16610ced836106ca565b73ffffffffffffffffffffffffffffffffffffffff167f8c5be1e5ebec7d5bd14f71427d1e84f3dd0314c0f7b2291e5b200ac8c7c3b92560405160405180910390a45050565b6000610d3e82610c06565b610d7d576040517f08c379a0000000000000000000000000000000000000000000000000000000008152600401610d7490612036565b60405180910390fd5b6000610d88836106ca565b90508073ffffffffffffffffffffffffffffffffffffffff168473ffffffffffffffffffffffffffffffffffffffff161480610df757508373ffffffffffffffffffffffffffffffffffffffff16610ddf8461048e565b73ffffffffffffffffffffffffffffffffffffffff16145b80610e085750610e078185610b08565b5b91505092915050565b8273ffffffffffffffffffffffffffffffffffffffff16610e31826106ca565b73ffffffffffffffffffffffffffffffffffffffff1614610e87576040517f08c379a0000000000000000000000000000000000000000000000000000000008152600401610e7e90611fb6565b60405180910390fd5b600073ffffffffffffffffffffffffffffffffffffffff168273ffffffffffffffffffffffffffffffffffffffff161415610ef7576040517f08c379a0000000000000000000000000000000000000000000000000000000008152600401610eee90611ff6565b60405180910390fd5b610f02838383611447565b610f0d600082610c7a565b6001600360008573ffffffffffffffffffffffffffffffffffffffff1673ffffffffffffffffffffffffffffffffffffffff1681526020019081526020016000206000828254610f5d91906122b1565b925050819055506001600360008473ffffffffffffffffffffffffffffffffffffffff1673ffffffffffffffffffffffffffffffffffffffff1681526020019081526020016000206000828254610fb4919061222a565b92505081905550816002600083815260200190815260200160002060006101000a81548173ffffffffffffffffffffffffffffffffffffffff021916908373ffffffffffffffffffffffffffffffffffffffff160217905550808273ffffffffffffffffffffffffffffffffffffffff168473ffffffffffffffffffffffffffffffffffffffff167fddf252ad1be2c89b69c2b068fc378daa952ba7f163c4a11628f55a4df523b3ef60405160405180910390a461107383838361144c565b505050565b600081600001549050919050565b6001816000016000828254019250508190555050565b6110b6828260405180602001604052806000815250611451565b5050565b8173ffffffffffffffffffffffffffffffffffffffff168373ffffffffffffffffffffffffffffffffffffffff161415611129576040517f08c379a000000000000000000000000000000000000000000000000000000000815260040161112090612016565b60405180910390fd5b80600560008573ffffffffffffffffffffffffffffffffffffffff1673ffffffffffffffffffffffffffffffffffffffff16815260200190815260200160002060008473ffffffffffffffffffffffffffffffffffffffff1673ffffffffffffffffffffffffffffffffffffffff16815260200190815260200160002060006101000a81548160ff0219169083151502179055508173ffffffffffffffffffffffffffffffffffffffff168373ffffffffffffffffffffffffffffffffffffffff167f17307eab39ab6107e8899845ad3d59bd9653f200f220920489ca2b5937696c318360405161121a9190611f59565b60405180910390a3505050565b611232848484610e11565b61123e848484846114ac565b61127d576040517f08c379a000000000000000000000000000000000000000000000000000000000815260040161127490611f96565b60405180910390fd5b50505050565b606060405180602001604052806000815250905090565b606060008214156112e2576040518060400160405280600181526020017f30000000000000000000000000000000000000000000000000000000000000008152509050611442565b600082905060005b600082146113145780806112fd90612446565b915050600a8261130d9190612280565b91506112ea565b60008167ffffffffffffffff811115611356577f4e487b7100000000000000000000000000000000000000000000000000000000600052604160045260246000fd5b6040519080825280601f01601f1916602001820160405280156113885781602001600182028036833780820191505090505b5090505b6000851461143b576001826113a191906122b1565b9150600a856113b0919061248f565b60306113bc919061222a565b60f81b8183815181106113f8577f4e487b7100000000000000000000000000000000000000000000000000000000600052603260045260246000fd5b60200101907effffffffffffffffffffffffffffffffffffffffffffffffffffffffffffff1916908160001a905350600a856114349190612280565b945061138c565b8093505050505b919050565b505050565b505050565b61145b8383611643565b61146860008484846114ac565b6114a7576040517f08c379a000000000000000000000000000000000000000000000000000000000815260040161149e90611f96565b60405180910390fd5b505050565b60006114cd8473ffffffffffffffffffffffffffffffffffffffff1661181d565b15611636578373ffffffffffffffffffffffffffffffffffffffff1663150b7a026114f6610c72565b8786866040518563ffffffff1660e01b81526004016115189493929190611f0d565b602060405180830381600087803b15801561153257600080fd5b505af192505050801561156357506040513d601f19601f820116820180604052508101906115609190611b59565b60015b6115e6573d8060008114611593576040519150601f19603f3d011682016040523d82523d6000602084013e611598565b606091505b506000815114156115de576040517f08c379a00000000000000000000000000000000000000000000000000000000081526004016115d590611f96565b60405180910390fd5b805181602001fd5b63150b7a0260e01b7bffffffffffffffffffffffffffffffffffffffffffffffffffffffff1916817bffffffffffffffffffffffffffffffffffffffffffffffffffffffff19161491505061163b565b600190505b949350505050565b600073ffffffffffffffffffffffffffffffffffffffff168273ffffffffffffffffffffffffffffffffffffffff1614156116b3576040517f08c379a00000000000000000000000000000000000000000000000000000000081526004016116aa906120d6565b60405180910390fd5b6116bc81610c06565b156116fc576040517f08c379a00000000000000000000000000000000000000000000000000000000081526004016116f390611fd6565b60405180910390fd5b61170860008383611447565b6001600360008473ffffffffffffffffffffffffffffffffffffffff1673ffffffffffffffffffffffffffffffffffffffff1681526020019081526020016000206000828254611758919061222a565b92505081905550816002600083815260200190815260200160002060006101000a81548173ffffffffffffffffffffffffffffffffffffffff021916908373ffffffffffffffffffffffffffffffffffffffff160217905550808273ffffffffffffffffffffffffffffffffffffffff16600073ffffffffffffffffffffffffffffffffffffffff167fddf252ad1be2c89b69c2b068fc378daa952ba7f163c4a11628f55a4df523b3ef60405160405180910390a46118196000838361144c565b5050565b6000808273ffffffffffffffffffffffffffffffffffffffff163b119050919050565b600061185361184e846121b6565b612191565b90508281526020810184848401111561186b57600080fd5b6118768482856123a1565b509392505050565b60008135905061188d816129bc565b92915050565b6000813590506118a2816129d3565b92915050565b6000813590506118b7816129ea565b92915050565b6000813590506118cc81612a01565b92915050565b6000815190506118e181612a01565b92915050565b600082601f8301126118f857600080fd5b8135611908848260208601611840565b91505092915050565b60008135905061192081612a18565b92915050565b60006020828403121561193857600080fd5b60006119468482850161187e565b91505092915050565b6000806040838503121561196257600080fd5b60006119708582860161187e565b92505060206119818582860161187e565b9150509250929050565b600080600080608085870312156119a157600080fd5b60006119af8782880161187e565b94505060206119c087828801611893565b93505060406119d18782880161187e565b92505060606119e287828801611911565b91505092959194509250565b600080600060608486031215611a0357600080fd5b6000611a118682870161187e565b9350506020611a228682870161187e565b9250506040611a3386828701611911565b9150509250925092565b60008060008060808587031215611a5357600080fd5b6000611a618782880161187e565b9450506020611a728782880161187e565b9350506040611a8387828801611911565b925050606085013567ffffffffffffffff811115611aa057600080fd5b611aac878288016118e7565b91505092959194509250565b60008060408385031215611acb57600080fd5b6000611ad98582860161187e565b9250506020611aea858286016118a8565b9150509250929050565b60008060408385031215611b0757600080fd5b6000611b158582860161187e565b9250506020611b2685828601611911565b9150509250929050565b600060208284031215611b4257600080fd5b6000611b50848285016118bd565b91505092915050565b600060208284031215611b6b57600080fd5b6000611b79848285016118d2565b91505092915050565b600060208284031215611b9457600080fd5b6000611ba284828501611911565b91505092915050565b611bb48161236b565b82525050565b611bc3816122e5565b82525050565b611bd281612309565b82525050565b6000611be3826121e7565b611bed81856121fd565b9350611bfd8185602086016123b0565b611c068161257c565b840191505092915050565b6000611c1c826121f2565b611c26818561220e565b9350611c368185602086016123b0565b611c3f8161257c565b840191505092915050565b6000611c55826121f2565b611c5f818561221f565b9350611c6f8185602086016123b0565b80840191505092915050565b6000611c8860328361220e565b9150611c938261258d565b604082019050919050565b6000611cab60258361220e565b9150611cb6826125dc565b604082019050919050565b6000611cce601c8361220e565b9150611cd98261262b565b602082019050919050565b6000611cf160248361220e565b9150611cfc82612654565b604082019050919050565b6000611d1460198361220e565b9150611d1f826126a3565b602082019050919050565b6000611d37602c8361220e565b9150611d42826126cc565b604082019050919050565b6000611d5a60388361220e565b9150611d658261271b565b604082019050919050565b6000611d7d602a8361220e565b9150611d888261276a565b604082019050919050565b6000611da060298361220e565b9150611dab826127b9565b604082019050919050565b6000611dc360228361220e565b9150611dce82612808565b604082019050919050565b6000611de660208361220e565b9150611df182612857565b602082019050919050565b6000611e09602c8361220e565b9150611e1482612880565b604082019050919050565b6000611e2c602f8361220e565b9150611e37826128cf565b604082019050919050565b6000611e4f60218361220e565b9150611e5a8261291e565b604082019050919050565b6000611e7260318361220e565b9150611e7d8261296d565b604082019050919050565b611e9181612361565b82525050565b6000611ea38285611c4a565b9150611eaf8284611c4a565b91508190509392505050565b6000602082019050611ed06000830184611bba565b92915050565b6000606082019050611eeb6000830186611bba565b611ef86020830185611bab565b611f056040830184611e88565b949350505050565b6000608082019050611f226000830187611bba565b611f2f6020830186611bba565b611f3c6040830185611e88565b8181036060830152611f4e8184611bd8565b905095945050505050565b6000602082019050611f6e6000830184611bc9565b92915050565b60006020820190508181036000830152611f8e8184611c11565b905092915050565b60006020820190508181036000830152611faf81611c7b565b9050919050565b60006020820190508181036000830152611fcf81611c9e565b9050919050565b60006020820190508181036000830152611fef81611cc1565b9050919050565b6000602082019050818103600083015261200f81611ce4565b9050919050565b6000602082019050818103600083015261202f81611d07565b9050919050565b6000602082019050818103600083015261204f81611d2a565b9050919050565b6000602082019050818103600083015261206f81611d4d565b9050919050565b6000602082019050818103600083015261208f81611d70565b9050919050565b600060208201905081810360008301526120af81611d93565b9050919050565b600060208201905081810360008301526120cf81611db6565b9050919050565b600060208201905081810360008301526120ef81611dd9565b9050919050565b6000602082019050818103600083015261210f81611dfc565b9050919050565b6000602082019050818103600083015261212f81611e1f565b9050919050565b6000602082019050818103600083015261214f81611e42565b9050919050565b6000602082019050818103600083015261216f81611e65565b9050919050565b600060208201905061218b6000830184611e88565b92915050565b600061219b6121ac565b90506121a78282612415565b919050565b6000604051905090565b600067ffffffffffffffff8211156121d1576121d061254d565b5b6121da8261257c565b9050602081019050919050565b600081519050919050565b600081519050919050565b600082825260208201905092915050565b600082825260208201905092915050565b600081905092915050565b600061223582612361565b915061224083612361565b9250827fffffffffffffffffffffffffffffffffffffffffffffffffffffffffffffffff03821115612275576122746124c0565b5b828201905092915050565b600061228b82612361565b915061229683612361565b9250826122a6576122a56124ef565b5b828204905092915050565b60006122bc82612361565b91506122c783612361565b9250828210156122da576122d96124c0565b5b828203905092915050565b60006122f082612341565b9050919050565b600061230282612341565b9050919050565b60008115159050919050565b60007fffffffff0000000000000000000000000000000000000000000000000000000082169050919050565b600073ffffffffffffffffffffffffffffffffffffffff82169050919050565b6000819050919050565b60006123768261237d565b9050919050565b60006123888261238f565b9050919050565b600061239a82612341565b9050919050565b82818337600083830152505050565b60005b838110156123ce5780820151818401526020810190506123b3565b838111156123dd576000848401525b50505050565b600060028204905060018216806123fb57607f821691505b6020821081141561240f5761240e61251e565b5b50919050565b61241e8261257c565b810181811067ffffffffffffffff8211171561243d5761243c61254d565b5b80604052505050565b600061245182612361565b91507fffffffffffffffffffffffffffffffffffffffffffffffffffffffffffffffff821415612484576124836124c0565b5b600182019050919050565b600061249a82612361565b91506124a583612361565b9250826124b5576124b46124ef565b5b828206905092915050565b7f4e487b7100000000000000000000000000000000000000000000000000000000600052601160045260246000fd5b7f4e487b7100000000000000000000000000000000000000000000000000000000600052601260045260246000fd5b7f4e487b7100000000000000000000000000000000000000000000000000000000600052602260045260246000fd5b7f4e487b7100000000000000000000000000000000000000000000000000000000600052604160045260246000fd5b6000601f19601f8301169050919050565b7f4552433732313a207472616e7366657220746f206e6f6e20455243373231526560008201527f63656976657220696d706c656d656e7465720000000000000000000000000000602082015250565b7f4552433732313a207472616e736665722066726f6d20696e636f72726563742060008201527f6f776e6572000000000000000000000000000000000000000000000000000000602082015250565b7f4552433732313a20746f6b656e20616c7265616479206d696e74656400000000600082015250565b7f4552433732313a207472616e7366657220746f20746865207a65726f2061646460008201527f7265737300000000000000000000000000000000000000000000000000000000602082015250565b7f4552433732313a20617070726f766520746f2063616c6c657200000000000000600082015250565b7f4552433732313a206f70657261746f7220717565727920666f72206e6f6e657860008201527f697374656e7420746f6b656e0000000000000000000000000000000000000000602082015250565b7f4552433732313a20617070726f76652063616c6c6572206973206e6f74206f7760008201527f6e6572206e6f7220617070726f76656420666f7220616c6c0000000000000000602082015250565b7f4552433732313a2062616c616e636520717565727920666f7220746865207a6560008201527f726f206164647265737300000000000000000000000000000000000000000000602082015250565b7f4552433732313a206f776e657220717565727920666f72206e6f6e657869737460008201527f656e7420746f6b656e0000000000000000000000000000000000000000000000602082015250565b7f5472616e73666572206f662045544820746f207265636569766572206661696c60008201527f6564000000000000000000000000000000000000000000000000000000000000602082015250565b7f4552433732313a206d696e7420746f20746865207a65726f2061646472657373600082015250565b7f4552433732313a20617070726f76656420717565727920666f72206e6f6e657860008201527f697374656e7420746f6b656e0000000000000000000000000000000000000000602082015250565b7f4552433732314d657461646174613a2055524920717565727920666f72206e6f60008201527f6e6578697374656e7420746f6b656e0000000000000000000000000000000000602082015250565b7f4552433732313a20617070726f76616c20746f2063757272656e74206f776e6560008201527f7200000000000000000000000000000000000000000000000000000000000000602082015250565b7f4552433732313a207472616e736665722063616c6c6572206973206e6f74206f60008201527f776e6572206e6f7220617070726f766564000000000000000000000000000000602082015250565b6129c5816122e5565b81146129d057600080fd5b50565b6129dc816122f7565b81146129e757600080fd5b50565b6129f381612309565b81146129fe57600080fd5b50565b612a0a81612315565b8114612a1557600080fd5b50565b612a2181612361565b8114612a2c57600080fd5b5056fea2646970667358221220780b710de57f35cbfcf43d4f0f4df35d64aba47cc43ab3d1756b8562a913e65364736f6c63430008040033a2646970667358221220427854f6f05f6194d3abe3600a433ac3b8ec7f1c7076bcb6a713c4de6b883cee64736f6c63430008040033",
  "linkReferences": {},
  "deployedLinkReferences": {}
}